:100000000C9446000C9465000C9465000C946500FB
:100010000C9465000C9465000C9465000C946500CC
:100020000C9465000C9465000C9465000C946500BC
:100030000C9465000C94DE010C9465000C94650032
:100040000C9465000C9465000C9465000C9465009C
:100050000C9465000C9465000C9465000C9465008C
:100060000C9465000C9465000C9465000C9465007C
:100070000C9465000C9465000C9465000C9465006C
:100080000C9465000C9465000C94650011241FBE4F
:10009000CFEFD0E4DEBFCDBF11E0A0E0B1E0E2EEF3
:1000A000F8E000E00BBF02C007900D92A032B1074C
:1000B000D9F721E0A0E2B1E001C01D92A533B2075B
:1000C000E1F70E94B8030C946F040C940000CF93E6
:1000D000DF93CDB7DEB781E00E948E000000DF9194
:1000E000CF910895CF93DF93CDB7DEB784E690E04C
:1000F0000E94320188E30E948E0086E00E948E00FA
:100100008FE00E948E0081E00E948E008AE090E0E5
:100110000E9432010000DF91CF910895CF93DF93C9
:100120001F92CDB7DEB789838BE290E02BE230E0FF
:10013000F90120812F7BFC01208382E290E029815C
:10014000FC0120838BE290E02BE230E0F90120817A
:100150002068FC01208300008BE290E02BE230E07D
:10016000F90120812F77FC01208382E090E00E943A
:10017000320100000F90DF91CF910895CF93DF936C
:100180001F92CDB7DEB789838BE290E02BE230E09F
:10019000F90120812064FC01208382E290E0298122
:1001A000FC0120838BE290E02BE230E0F90120811A
:1001B0002068FC01208300008BE290E02BE230E01D
:1001C000F90120812F77FC01208381E090E00E94DB
:1001D000320100000F90DF91CF910895CF93DF930C
:1001E00000D000D0CDB7DEB78A837C836B830E94BA
:1001F00067008A81898311C0898191E0980F998372
:100200000E941B018B819C819C012F5F3F4F3C838F
:100210002B83FC0180810E94BE008B819C81FC01AC
:100220008081882349F700000F900F900F900F9066
:10023000DF91CF910895CF93DF931F92CDB7DEB7B3
:1002400089838981813128F4898181580E948E00B7
:1002500004C0898181550E948E0000000F90DF91BB
:10026000CF910895CF93DF9300D000D000D0CDB7C9
:10027000DEB79E838D831A82198213C01C821B8273
:1002800006C000008B819C8101969C838B838B81AF
:100290009C8187309340ACF389819A8101969A833F
:1002A000898329813A818D819E812817390734F30A
:1002B000000026960FB6F894DEBF0FBECDBFDF91CB
:1002C000CF910895CF93DF9300D000D0CDB7DEB7A4
:1002D00069837A838B839C8389819A81AB81BC817A
:1002E0008093000190930101A0930201B093030158
:1002F0008091000190910101A0910201B091030150
:100300008093210190932201A0932301B0932401B3
:1003100000000F900F900F900F90DF91CF910895F4
:10032000CF93DF93CDB7DEB781E890E02BE0FC01FF
:10033000208388E890E02DE730E0FC0131832083C2
:100340008FE690E022E0FC01208384E890E0FC014D
:10035000118210828091000190910101A09102010F
:10036000B09103018093210190932201A093230176
:10037000B09324018FE590E02FE530E0F901208172
:100380002068FC0120830000DF91CF910895CF9376
:10039000DF93CDB7DEB781E890E0FC01108200006A
:1003A000DF91CF910895CF93DF93CDB7DEB781E092
:1003B000809320010000DF91CF9108951F920F924A
:1003C00000905F000F92112400905B000F922F931A
:1003D0003F934F935F936F937F938F939F93AF93CD
:1003E000BF93EF93FF93CF93DF93CDB7DEB78091A9
:1003F000210190912201A0912301B0912401019744
:10040000A109B1098093210190932201A0932301B6
:10041000B09324018091210190912201A0912301A8
:10042000B0912401892B8A2B8B2B91F40E94D3014C
:100430008091000190910101A0910201B09103010E
:100440008093210190932201A0932301B093240172
:100450000000DF91CF91FF91EF91BF91AF919F91FC
:100460008F917F916F915F914F913F912F910F905D
:1004700000925B000F9000925F000F901F90189504
:10048000CF93DF9300D01F92CDB7DEB789837B83F4
:100490006A8389818A3031F48A819B81BC018DE035
:1004A0000E94400280EC90E0FC018081882F90E067
:1004B00080729927892BB1F386EC90E02981FC01A9
:1004C000208380E090E00F900F900F90DF91CF910C
:1004D0000895CF93DF93CDB7DEB780912D01909132
:1004E0002E018130910569F08130910518F0029755
:1004F00099F020C081E090E090932E0180932D012F
:1005000019C080912901823091F482E090E09093AB
:100510002E0180932D010BC080912901813049F477
:1005200081E090E090932E0180932D0102C00000A5
:1005300001C0000080912D0190912E018130910524
:1005400031F081309105E8F0029771F01BC081E035
:1005500090E0909334018093330181E00E941B016D
:1005600081E080932A010EC082E090E090933401F4
:100570008093330181E10E941B0181E180932A0174
:1005800001C000000000DF91CF910895CF93DF9369
:10059000CDB7DEB78091310190913201009719F00B
:1005A000019741F038C081E090E090933201809350
:1005B000310131C080912B018130B9F080912F0140
:1005C000813199F080912B01815080932B01809192
:1005D0002B018093300180912F01815080932F0156
:1005E00080912F0180932C0115C080912B018130C7
:1005F00039F480E180932B0180E1809330010AC0BF
:1006000080912B01813131F480E280932F0180E2CF
:1006100080932C010000809131019091320100976C
:10062000E1F0019709F01AC00E94670080912B0148
:100630000E941B0183E20E94BE0080912B018093E7
:10064000300180912F010E941B0183E20E94BE00B5
:1006500080912F0180932C0101C000000000DF91E8
:10066000CF910895CF93DF93CDB7DEB78091270167
:100670009091280182309105B1F18330910528F4E1
:10068000009749F0019771F041C08330910521F145
:100690000497A1F13BC081E090E090932801809302
:1006A000270134C090912A0180913001981731F0D0
:1006B00090912A0180912C01981739F483E090E001
:1006C000909328018093270121C081E090E09093CE
:1006D0002801809327011AC082E090E090932801BE
:1006E0008093270113C080912901843071F484E044
:1006F00090E0909328018093270107C081E090E06B
:10070000909328018093270101C000008091270168
:10071000909128018230910521F18330910528F4D0
:10072000009709F1019739F01FC08330910531F02E
:10073000049781F019C00E94690216C062E171E05D
:1007400081E00E94EE0081E090E09093260180938A
:1007500025010AC00E94670010922601109225010F
:1007600003C0000001C000000000DF91CF91089598
:10077000CF93DF93CDB7DEB72C970FB6F894DEBFDB
:100780000FBECDBF81E290E02FEFFC01208382E21B
:1007900090E0FC01108284E290E0FC01108285E28E
:1007A00090E02FEFFC01208387E290E02FEFFC0127
:1007B000208388E290E0FC0110828AE290E02FEF33
:1007C000FC0120838BE290E0FC0110821092290151
:1007D0008FE080932B018AE180932F0110922601F4
:1007E0001092250182E390E0A0E0B0E089839A8333
:1007F000AB83BC8384EF91E0A0E0B0E08D839E8367
:10080000AF83B88782E390E0A0E0B0E089879A8761
:10081000AB87BC8710922E0110922D0110923201ED
:1008200010923101109228011092270189859A8532
:10083000AB85BC85BC01CD010E9462010E94900184
:100840000E94720083E290E0FC01808180958770B5
:100850008093290189819A81AB81BC81C297A105CE
:10086000B10530F00E94320319821A821B821C8269
:100870008D819E81AF81B885843F9140A105B105EE
:1008800030F00E94C6021D821E821F821886000060
:10089000809120018823E1F31092200129813A817F
:1008A0004B815C8189859A85AB85BC85820F931FBE
:1008B000A41FB51F89839A83AB83BC832D813E819E
:1008C0004F81588589859A85AB85BC85820F931F9A
:1008D000A41FB51F8D839E83AF83B887B3CFF894D1
:0208E000FFCF48
:1008E20001000000000000020000000040020000C1
:1008F200000075206172652061206C6F7365720063
:00000001FF
