:100000000C9446000C9465000C9465000C946500FB
:100010000C9465000C9465000C9465000C946500CC
:100020000C9465000C9465000C9465000C946500BC
:100030000C9465000C94DE010C9465000C94650032
:100040000C9465000C9465000C9465000C9465009C
:100050000C9465000C9465000C9465000C9465008C
:100060000C9465000C9465000C9465000C9465007C
:100070000C9465000C9465000C9465000C9465006C
:100080000C9465000C9465000C94650011241FBE4F
:10009000CFEFD0E4DEBFCDBF11E0A0E0B1E0ECE4F3
:1000A000FBE000E00BBF02C007900D92AA35B1073C
:1000B000D9F721E0AAE5B1E001C01D92AD36B20743
:1000C000E1F70E943C040C94A4050C940000CF932B
:1000D000DF93CDB7DEB781E00E948E000000DF9194
:1000E000CF910895CF93DF93CDB7DEB784E690E04C
:1000F0000E94320188E30E948E0086E00E948E00FA
:100100008FE00E948E0081E00E948E008AE090E0E5
:100110000E9432010000DF91CF910895CF93DF93C9
:100120001F92CDB7DEB789838BE290E02BE230E0FF
:10013000F90120812F7BFC01208382E290E029815C
:10014000FC0120838BE290E02BE230E0F90120817A
:100150002068FC01208300008BE290E02BE230E07D
:10016000F90120812F77FC01208382E090E00E943A
:10017000320100000F90DF91CF910895CF93DF936C
:100180001F92CDB7DEB789838BE290E02BE230E09F
:10019000F90120812064FC01208382E290E0298122
:1001A000FC0120838BE290E02BE230E0F90120811A
:1001B0002068FC01208300008BE290E02BE230E01D
:1001C000F90120812F77FC01208381E090E00E94DB
:1001D000320100000F90DF91CF910895CF93DF930C
:1001E00000D000D0CDB7DEB78A837C836B830E94BA
:1001F00067008A81898311C0898191E0980F998372
:100200000E941B018B819C819C012F5F3F4F3C838F
:100210002B83FC0180810E94BE008B819C81FC01AC
:100220008081882349F700000F900F900F900F9066
:10023000DF91CF910895CF93DF931F92CDB7DEB7B3
:1002400089838981813128F4898181580E948E00B7
:1002500004C0898181550E948E0000000F90DF91BB
:10026000CF910895CF93DF9300D000D000D0CDB7C9
:10027000DEB79E838D831A82198213C01C821B8273
:1002800006C000008B819C8101969C838B838B81AF
:100290009C8187309340ACF389819A8101969A833F
:1002A000898329813A818D819E812817390734F30A
:1002B000000026960FB6F894DEBF0FBECDBFDF91CB
:1002C000CF910895CF93DF9300D000D0CDB7DEB7A4
:1002D00069837A838B839C8389819A81AB81BC817A
:1002E0008093000190930101A0930201B093030158
:1002F0008091000190910101A0910201B091030150
:1003000080935B0190935C01A0935D01B0935E01CB
:1003100000000F900F900F900F90DF91CF910895F4
:10032000CF93DF93CDB7DEB781E890E02BE0FC01FF
:10033000208388E890E02DE730E0FC0131832083C2
:100340008FE690E022E0FC01208384E890E0FC014D
:10035000118210828091000190910101A09102010F
:10036000B091030180935B0190935C01A0935D01C8
:10037000B0935E018FE590E02FE530E0F901208138
:100380002068FC0120830000DF91CF910895CF9376
:10039000DF93CDB7DEB781E890E0FC01108200006A
:1003A000DF91CF910895CF93DF93CDB7DEB781E092
:1003B00080935A010000DF91CF9108951F920F9210
:1003C00000905F000F92112400905B000F922F931A
:1003D0003F934F935F936F937F938F939F93AF93CD
:1003E000BF93EF93FF93CF93DF93CDB7DEB78091A9
:1003F0005B0190915C01A0915D01B0915E0101975C
:10040000A109B10980935B0190935C01A0935D0108
:10041000B0935E0180915B0190915C01A0915D01C0
:10042000B0915E01892B8A2B8B2B91F40E94D30112
:100430008091000190910101A0910201B09103010E
:1004400080935B0190935C01A0935D01B0935E018A
:100450000000DF91CF91FF91EF91BF91AF919F91FC
:100460008F917F916F915F914F913F912F910F905D
:1004700000925B000F9000925F000F901F90189504
:10048000CF93DF93CDB7DEB72C970FB6F894DEBFCE
:100490000FBECDBF6D837E838F83988729873A8770
:1004A0004B875C878D819E81AF81B88529853A8590
:1004B0004B855C85BC01CD010E948205DC01CB012E
:1004C00089839A83AB83BC8389819A81AB81BC8108
:1004D000892B8A2B8B2B29F489859A85AB85BC8542
:1004E00011C089859A85AB85BC858D839E83AF833A
:1004F000B88789819A81AB81BC8189879A87AB87CC
:10050000BC87D0CFBC01CD012C960FB6F894DEBFCE
:100510000FBECDBFDF91CF910895CF93DF9300D071
:100520001F92CDB7DEB789836A834B838B81882383
:1005300071F08A81282F30E081E090E002C0880FBE
:10054000991F2A95E2F7982F8981892B0EC08A81FD
:10055000282F30E081E090E002C0880F991F2A9593
:10056000E2F7982F9095898189230F900F900F9033
:10057000DF91CF910895CF93DF9300D0CDB7DEB751
:1005800089836A838A81282F30E081E090E002C06D
:10059000880F991F2A95E2F7982F898189230F9058
:1005A0000F90DF91CF9108950F931F93CF93DF9317
:1005B000CDB7DEB708E210E040E064E08FEF0E94C4
:1005C0008D02F8018083000086E290E0FC018081CA
:1005D000809560E00E94BB02882311F084E4D3C0C0
:1005E00086E290E0FC018081809561E00E94BB0280
:1005F000882311F083E2C7C086E290E0FC0180818D
:10060000809562E00E94BB02882311F080E3BBC0AA
:1006100086E290E0FC018081809563E00E94BB024D
:10062000882311F08AE2AFC008E210E040E065E004
:100630008FEF0E948D02F8018083000086E290E037
:10064000FC018081809560E00E94BB02882311F04C
:1006500083E499C086E290E0FC018081809561E0AE
:100660000E94BB02882311F089E38DC086E290E0EE
:10067000FC018081809562E00E94BB02882311F01A
:1006800088E381C086E290E0FC018081809563E090
:100690000E94BB02882311F087E375C008E210E0D6
:1006A00040E066E08FEF0E948D02F8018083000039
:1006B00086E290E0FC018081809560E00E94BB02B0
:1006C000882311F082E45FC086E290E0FC01808123
:1006D000809561E00E94BB02882311F086E353C03D
:1006E00086E290E0FC018081809562E00E94BB027E
:1006F000882311F085E347C086E290E0FC01808109
:10070000809563E00E94BB02882311F084E33BC024
:1007100008E210E040E067E08FEF0E948D02F801F0
:100720008083000086E290E0FC018081809560E09B
:100730000E94BB02882311F081E425C086E290E08C
:10074000FC018081809561E00E94BB02882311F04A
:1007500083E319C086E290E0FC018081809562E02D
:100760000E94BB02882311F082E30DC086E290E074
:10077000FC018081809563E00E94BB02882311F018
:1007800081E301C080E0DF91CF911F910F91089527
:10079000CF93DF9300D01F92CDB7DEB789837B83E1
:1007A0006A8389818A3031F48A819B81BC018DE022
:1007B0000E94C80380EC90E0FC018081882F90E0CB
:1007C00080729927892BB1F386EC90E02981FC0196
:1007D000208380E090E00F900F900F90DF91CF91F9
:1007E0000895CF93DF9300D0CDB7DEB79A83898386
:1007F00089819A81892B09F038C081E080936C014E
:100800002AC080916C010E941B0180911201282F47
:1008100030E080916C01882F90E0820F931F029747
:100820008D5E9E4FFC0180810E94BE00809112016E
:10083000282F30E080916C01882F90E0820F931F69
:100840008534910519F481E08093120180916C0147
:100850008F5F80936C0180916C01813190F2809167
:1008600012018F5F80931201000089819A810F909D
:100870000F90DF91CF9108950F931F93CF93DF9344
:10088000CDB7DEB766970FB6F894DEBF0FBECDBF0B
:1008900084E290E02FEFFC01208385E290E0FC01F0
:1008A000108281E290E02FEFFC01208382E290E051
:1008B000FC01108287E290E020EFFC01208388E2B7
:1008C00090E02FE0FC0120838AE290E02FEFFC0112
:1008D00020838BE290E0FC01108284EF91E0A0E0A5
:1008E000B0E08B839C83AD83BE8381E090E0A0E089
:1008F000B0E08F839887A987BA872B813C814D818F
:100900005E818F819885A985BA85BC01CD010E9441
:100910004002DC01CB018F839887A987BA878F813A
:100920009885A985BA858B879C87AD87BE878B8183
:100930009C81AD81BE812B853C854D855E85BC014A
:10094000CD010E948205DA01C9018F87988BA98B9E
:10095000BA8B8FE591E09E8B8D8B81E090E09C8B34
:100960008B8B10925F018F859889A989BA898093B2
:10097000600190936101A0936201B09363018F8540
:100980009889A989BA898093640190936501A0939D
:100990006601B093670181EF93E0909369018093C2
:1009A000680164E670E080E090E00E9462010E94CD
:1009B00090010E9472001A8219829BC089819A81DB
:1009C000880F991F9E012F5F3F4F820F931F449600
:1009D000FC0180819181FC01258136814781508510
:1009E00089819A81880F991FBE016F5F7F4F860FA3
:1009F000971F4496FC0180819181FC018181928145
:100A0000A381B481281739074A075B0709F045C05D
:100A100089819A81880F991F9E012F5F3F4F820F16
:100A2000931F4496FC010081118189819A81880F6E
:100A3000991F9E012F5F3F4F820F931F4496FC0129
:100A400080819181FC012185328589819A81880F7D
:100A5000991FAE014F5F5F4F840F951F4496FC01B5
:100A600080819181FC018081082E000C990BF90195
:100A70000995F801808389819A81880F991F9E01C9
:100A80002F5F3F4F820F931F4496FC01808191811D
:100A9000FC01158216821782108689819A81880F3F
:100AA000991F9E012F5F3F4F820F931F4496FC01B9
:100AB0002081318189819A81880F991FAE014F5F12
:100AC0005F4F840F951F4496FC0180819181FC014A
:100AD00085819681A781B0850196A11DB11DF9017F
:100AE00085839683A783B08789819A8101969A83AB
:100AF000898329813A818B899C892817390708F4D1
:100B00005DCF59CFA1E21A2EAA1BBB1BFD010DC060
:100B1000AA1FBB1FEE1FFF1FA217B307E407F507AD
:100B200020F0A21BB30BE40BF50B661F771F881F89
:100B3000991F1A9469F760957095809590959B011F
:0C0B4000AC01BD01CF010895F894FFCF77
:100B4C00010000000000000200000000C8030000CB
:100B5C000000012020202020202020202043533181
:100B6C003230422049534C4547454E442E2E2E20C0
:100B7C00205741495420464F5220495420202020D0
:100B8C0020202020444152592120202020202020A8
:0A0B9C00000000000000000000004F
:00000001FF
