:100000000C948B000C94AA000C94AA000C94AA00E7
:100010000C94AA000C94AA000C94AA000C94AA00B8
:100020000C94AA000C94AA000C94AA000C94AA00A8
:100030000C94AA000C946A020C94AA000C94AA00D6
:100040000C94AA000C94AA000C94AA000C94AA0088
:100050000C94AA000C94AA000C94AA000C94AA0078
:100060000C94AA000C94AA000C94AA000C94AA0068
:100070000C94AA000C94AA000C94AA000C94AA0058
:100080000C94AA000C94AA000C94AA00D5053A0678
:100090003A063A063A063A063A063A063A063A0660
:1000A0003A063A063A063A063A063A063A063A0650
:1000B0003A063A063A063A063A063A063A063A0640
:1000C0003A063A063A063A063A063A063A063A0630
:1000D0003A0634063A063A063A063A063A063A0626
:1000E00029063A063A063A063A063A062F06DB058C
:1000F000E105E705ED05F305F905FF0505060B0626
:100100003A063A063A063A063A063A063A06110618
:1001100017061D06230611241FBECFEFD0E4DEBF55
:10012000CDBF11E0A0E0B1E0ECEDFCE000E00BBFE2
:1001300002C007900D92A032B107D9F721E0A0E2EA
:10014000B1E001C01D92A333B207E1F70E946B0436
:100150000C946C060C940000CF93DF9300D01F9298
:10016000CDB7DEB789836A834B838B81882371F097
:100170008A81282F30E081E090E002C0880F991F2B
:100180002A95E2F7982F8981892B0EC08A81282F22
:1001900030E081E090E002C0880F991F2A95E2F7D5
:1001A000982F9095898189230F900F900F90DF9160
:1001B000CF910895CF93DF9300D0CDB7DEB7898379
:1001C0006A838A81282F30E081E090E002C0880FA6
:1001D000991F2A95E2F7982F898189230F900F9014
:1001E000DF91CF910895CF93DF93CDB7DEB781E054
:1001F0000E941A010000DF91CF910895CF93DF9301
:10020000CDB7DEB784E690E00E94BE0188E30E948D
:100210001A0186E00E941A018FE00E941A0181E013
:100220000E941A018AE090E00E94BE010000DF9166
:10023000CF910895CF93DF931F92CDB7DEB7898317
:100240008BE290E02BE230E0F90120812F7BFC0172
:10025000208382E290E02981FC0120838BE290E000
:100260002BE230E0F90120812068FC0120830000AE
:100270008BE290E02BE230E0F90120812F77FC0146
:10028000208382E090E00E94BE0100000F90DF9189
:10029000CF910895CF93DF931F92CDB7DEB78983B7
:1002A0008BE290E02BE230E0F90120812064FC0138
:1002B000208382E290E02981FC0120838BE290E0A0
:1002C0002BE230E0F90120812068FC01208300004E
:1002D0008BE290E02BE230E0F90120812F77FC01E6
:1002E000208381E090E00E94BE0100000F90DF912A
:1002F000CF910895CF93DF9300D000D0CDB7DEB774
:100300008A837C836B830E94F3008A81898311C076
:10031000898191E0980F99830E94A7018B819C812C
:100320009C012F5F3F4F3C832B83FC0180810E9407
:100330004A018B819C81FC018081882349F7000060
:100340000F900F900F900F90DF91CF910895CF9362
:10035000DF931F92CDB7DEB789838981813128F47D
:10036000898181580E941A0104C0898181550E94A7
:100370001A0100000F90DF91CF910895CF93DF9382
:1003800000D000D000D0CDB7DEB79E838D831A8217
:10039000198213C01C821B8206C000008B819C81C5
:1003A00001969C838B838B819C8187309340ACF337
:1003B00089819A8101969A83898329813A818D81E5
:1003C0009E812817390734F3000026960FB6F8945B
:1003D000DEBF0FBECDBFDF91CF910895CF93DF93E6
:1003E00000D000D0CDB7DEB769837A838B839C833E
:1003F00089819A81AB81BC81809300019093010136
:10040000A0930201B093030180910001909101013A
:10041000A0910201B09103018093210190932201E8
:10042000A0932301B093240100000F900F900F9030
:100430000F90DF91CF910895CF93DF93CDB7DEB7C3
:1004400081E890E02BE0FC01208388E890E02DE734
:1004500030E0FC01318320838FE690E022E0FC0154
:10046000208384E890E0FC011182108280910001D9
:1004700090910101A0910201B091030180932101AB
:1004800090932201A0932301B09324018FE590E083
:100490002FE530E0F90120812068FC012083000075
:1004A000DF91CF910895CF93DF93CDB7DEB781E889
:1004B00090E0FC0110820000DF91CF910895CF936E
:1004C000DF93CDB7DEB781E0809320010000DF919C
:1004D000CF9108951F920F9200905F000F92112408
:1004E00000905B000F922F933F934F935F936F9316
:1004F0007F938F939F93AF93BF93EF93FF93CF938C
:10050000DF93CDB7DEB78091210190912201A091B8
:100510002301B09124010197A109B1098093210120
:1005200090932201A0932301B09324018091210193
:1005300090912201A0912301B0912401892B8A2B53
:100540008B2B91F40E945F02809100019091010138
:10055000A0910201B09103018093210190932201A7
:10056000A0932301B09324010000DF91CF91FF916C
:10057000EF91BF91AF919F918F917F916F915F911B
:100580004F913F912F910F9000925B000F9000923E
:100590005F000F901F901895CF93DF93CDB7DEB714
:1005A0002C970FB6F894DEBF0FBECDBF6D837E8350
:1005B0008F83988729873A874B875C878D819E81B7
:1005C000AF81B88529853A854B855C85BC01CD0115
:1005D0000E944106DC01CB0189839A83AB83BC83F3
:1005E00089819A81AB81BC81892B8A2B8B2B29F441
:1005F00089859A85AB85BC8511C089859A85AB852F
:10060000BC858D839E83AF83B88789819A81AB81B6
:10061000BC8189879A87AB87BC87D0CFBC01CD01CD
:100620002C960FB6F894DEBF0FBECDBFDF91CF91F1
:1006300008950F931F93CF93DF93CDB7DEB708E2F2
:1006400010E040E064E08FEF0E94AC00F80180838E
:10065000000086E290E0FC018081809560E00E94CD
:10066000DA00882311F084E4D3C086E290E0FC0134
:100670008081809561E00E94DA00882311F083E296
:10068000C7C086E290E0FC018081809562E00E9414
:10069000DA00882311F080E3BBC086E290E0FC0121
:1006A0008081809563E00E94DA00882311F08AE25D
:1006B000AFC008E210E040E065E08FEF0E94AC00C0
:1006C000F8018083000086E290E0FC018081809543
:1006D00060E00E94DA00882311F083E499C086E28A
:1006E00090E0FC018081809561E00E94DA0088231F
:1006F00011F089E38DC086E290E0FC018081809555
:1007000062E00E94DA00882311F088E381C086E26B
:1007100090E0FC018081809563E00E94DA008823EC
:1007200011F087E375C008E210E040E066E08FEF6B
:100730000E94AC00F8018083000086E290E0FC019A
:100740008081809560E00E94DA00882311F082E4C5
:100750005FC086E290E0FC018081809561E00E94AC
:10076000DA00882311F086E353C086E290E0FC01B2
:100770008081809562E00E94DA00882311F085E391
:1007800047C086E290E0FC018081809563E00E9492
:10079000DA00882311F084E33BC008E210E040E077
:1007A00067E08FEF0E94AC00F8018083000086E2D2
:1007B00090E0FC018081809560E00E94DA0088234F
:1007C00011F081E425C086E290E0FC0180818095F3
:1007D00061E00E94DA00882311F083E319C086E209
:1007E00090E0FC018081809562E00E94DA0088231D
:1007F00011F082E30DC086E290E0FC0180818095DB
:1008000063E00E94DA00882311F081E301C080E0F8
:10081000DF91CF911F910F910895CF93DF9300D077
:100820001F92CDB7DEB789837B836A8389818A3043
:1008300031F48A819B81BC018DE00E940D0480EC23
:1008400090E0FC018081882F90E080729927892BAD
:10085000B1F386EC90E02981FC01208380E090E0F8
:100860000F900F900F90DF91CF910895CF93DF936A
:1008700000D0CDB7DEB79A83898389819A81892B8D
:1008800009F022C00E94190380932501809125015F
:100890008823C9F0809125010E944A0180911201AC
:1008A000803140F081E080931201809112010E941A
:1008B000A70109C0809112018F5F8093120180917E
:1008C00012010E94A701000089819A810F900F9068
:1008D000DF91CF9108950F931F93CF93DF93CDB7FF
:1008E000DEB768970FB6F894DEBF0FBECDBF84E2C7
:1008F00090E02FEFFC01208385E290E0FC01108264
:1009000081E290E02FEFFC01208382E290E0FC0185
:10091000108287E290E020EFFC01208388E290E0E3
:100920002FE0FC0120838AE290E02FEFFC0120837E
:100930008BE290E0FC01108284EF91E0A0E0B0E057
:100940008B839C83AD83BE8381E090E0A0E0B0E028
:100950008F839887A987BA872B813C814D815E81DF
:100960008F819885A985BA85BC01CD010E94CC02F2
:10097000DC01CB018F839887A987BA878F819885FF
:10098000A985BA858B879C87AD87BE878B819C8123
:10099000AD81BE812B853C854D855E85BC01CD0139
:1009A0000E944106DA01C9018F87988BA98BBA8B07
:1009B00086E291E0988F8F8B81E090E09C8B8B8B0F
:1009C000109226018F859889A989BA898093270179
:1009D00090932801A0932901B0932A018F859889CB
:1009E000A989BA8980932B0190932C01A0932D01A2
:1009F000B0932E0186E394E09093300180932F0111
:100A000068EE73E080E090E00E94EE010E941C021C
:100A10000E94FE0083E191E09E8B8D8B8D899E89E3
:100A2000BC0181E00E947A01809112010E94A7011D
:100A30001A8219829BC089819A81880F991F9E0111
:100A40002F5F3F4F820F931F4696FC01808191815B
:100A5000FC01258136814781508589819A81880FE3
:100A6000991FBE016F5F7F4F860F971F4696FC014F
:100A700080819181FC0181819281A381B4812817B9
:100A800039074A075B0709F045C089819A81880FB9
:100A9000991F9E012F5F3F4F820F931F4696FC01C7
:100AA0000081118189819A81880F991F9E012F5F92
:100AB0003F4F820F931F4696FC0180819181FC017C
:100AC0002185328589819A81880F991FAE014F5FF8
:100AD0005F4F840F951F4696FC0180819181FC0138
:100AE0008081082E000C990BF9010995F80180838B
:100AF00089819A81880F991F9E012F5F3F4F820F36
:100B0000931F4696FC0180819181FC01158216821B
:100B10001782108689819A81880F991F9E012F5F05
:100B20003F4F820F931F4696FC01208131818981BE
:100B30009A81880F991FAE014F5F5F4F840F951FF9
:100B40004696FC0180819181FC0185819681A78177
:100B5000B0850196A11DB11DF90185839683A783F8
:100B6000B08789819A8101969A83898329813A8104
:100B70008B899C892817390708F45DCF809125015E
:100B8000882F90E0092E000CAA0BBB0B40E050E030
:100B900024E430E0841B950B2817390708F46AC059
:100BA0008A5B9F4FFC010C94630685E290E02FE185
:100BB000FC01208365C085E290E021E0FC012083F8
:100BC0005FC085E290E022E0FC01208359C085E20D
:100BD00090E023E0FC01208353C085E290E024E014
:100BE000FC0120834DC085E290E025E0FC012083DC
:100BF00047C085E290E026E0FC01208341C085E209
:100C000090E027E0FC0120833BC085E290E028E0F3
:100C1000FC01208335C085E290E029E0FC012083BF
:100C20002FC085E290E02AE0FC01208329C085E204
:100C300090E02BE0FC01208323C085E290E02CE0D3
:100C4000FC0120831DC085E290E02DE0FC012083A3
:100C500017C085E290E02EE0FC01208311C085E200
:100C600090E0FC0110820CC085E290E02FE0FC01D6
:100C7000208306C085E290E02BE1FC012083000088
:100C8000D7CEA1E21A2EAA1BBB1BFD010DC0AA1FC5
:100C9000BB1FEE1FFF1FA217B307E407F50720F0E5
:100CA000A21BB30BE40BF50B661F771F881F991F60
:100CB0001A9469F760957095809590959B01AC01A9
:100CC000BD01CF010895EE0FFF1F0024001C0BBED5
:0C0CD0000790F691E02D0994F894FFCFF6
:100CDC000100000000000002000000000D040000F4
:100CEC00000001436F6E67726174696F6E7321004F
:00000001FF
